:100000000C9453000C947B000C947B000C947B00AC
:100010000C947B000C947B000C947B000C947B0074
:100020000C947B000C947B000C947B000C947B0064
:100030000C947B000C947B000C947B000C947B0054
:100040000C94C9020C947B000C9497020C947102DE
:100050000C947B000C947B000C947B000C947B0034
:100060000C947B000C947B0000000000250028000D
:100070002B0000000000240027002A0004040404D0
:100080000404040402020202020203030303030342
:10009000010204081020408001020408102001021F
:1000A00004081020180411241FBECFEFD8E0DEBFD3
:1000B000CDBF11E0A0E0B1E0E8EAF9E002C00590B0
:1000C0000D92AC31B107D9F721E0ACE1B1E001C04C
:1000D0001D92A83CB207E1F710E0C3E5D0E004C0F0
:1000E0002197FE010E94CC04C235D107C9F70E94B6
:1000F00013030C94D2040C940000CF93DF9390E090
:10010000FC01E057FF4F249184589F4FFC018491DC
:100110008823C1F090E0880F991FFC01EE58FF4F33
:10012000C591D491FC01E859FF4FA591B4919FB7B7
:10013000F8948881E22FE0958E2388838C91E823C0
:10014000EC939FBFDF91CF910895AF92BF92CF9272
:10015000DF92EF92FF920F931F93CF93DF936C0187
:100160007B018B01040F151FEB015E01AE18BF0868
:10017000C017D10759F06991D601ED91FC9101901A
:10018000F081E02DC6010995892B79F7C501DF9132
:10019000CF911F910F91FF90EF90DF90CF90BF9084
:1001A000AF900895FC01538D448D252F30E0842FAE
:1001B00090E0821B930B541710F0CF96089501978F
:1001C0000895FC01918D828D981761F0A28DAE0F7C
:1001D000BF2FB11D5D968C91928D9F5F9F73928F03
:1001E00090E008958FEF9FEF0895FC01918D828D2F
:1001F000981731F0828DE80FF11D858D90E00895FC
:100200008FEF9FEF0895FC01918D228D892F90E053
:10021000805C9F4F821B91098F73992708958BE211
:1002200091E00E94030121E0892B09F420E0822F54
:10023000089580E090E0892B29F00E940F01811140
:100240000C9400000895FC01A48DA80FB92FB11DD6
:10025000A35ABF4F2C91848D90E001968F739927FC
:10026000848FA689B7892C93A089B1898C918370DA
:1002700080648C93938D848D981306C00288F389D3
:10028000E02D80818F7D80830895EF92FF920F9300
:100290001F93CF93DF93EC0181E0888F9B8D8C8D32
:1002A00098131AC0E889F989808185FF15C09FB726
:1002B000F894EE89FF896083E889F98980818370E9
:1002C000806480839FBF81E090E0DF91CF911F9198
:1002D0000F91FF90EF900895F62E0B8D10E00F5FB9
:1002E0001F4F0F731127E02E8C8D8E110CC00FB68F
:1002F00007FCFACFE889F989808185FFF5CFCE0127
:100300000E942301F1CFEB8DEC0FFD2FF11DE35A7D
:10031000FF4FF0829FB7F8940B8FEA89FB898081A9
:100320008062CFCFCF93DF93EC01888D8823B9F023
:10033000AA89BB89E889F9898C9185FD03C08081F0
:1003400086FD0DC00FB607FCF7CF8C9185FFF2CF6D
:10035000808185FFEDCFCE010E942301E9CFDF919F
:10036000CF9108958E50806480937C0080917A00B4
:10037000806480937A0080917A0086FDFCCF809122
:1003800078009091790008953FB7F8948091210109
:1003900090912201A0912301B091240126B5A89B40
:1003A00005C02F3F19F00196A11DB11D3FBFBA2F07
:1003B000A92F982F8827BC01CD01620F711D811DC7
:1003C000911D42E0660F771F881F991F4A95D1F74C
:1003D0000895FC0101900020E9F73197AF01481B17
:1003E000590BBC018BE291E00C94A5008F929F9277
:1003F000AF92BF92CF92DF92EF92FF920F931F9333
:10040000CF93DF93CDB7DEB7A1970FB6F894DEBFD9
:100410000FBECDBF6B017C01F7FE41C06DE28BE2E8
:1004200091E00E9445018C0122273327A9012C1954
:100430003D094E095F0919A2CE0181967C019AE01F
:10044000892E912CA12CB12CCA01B901A5019401CE
:100450000E946404605DF70162937F0121153105FC
:100460004105510589F790E080E0309719F0CF0100
:100470000E94E901800F911FA1960FB6F894DEBF8C
:100480000FBECDBFDF91CF911F910F91FF90EF90E5
:10049000DF90CF90BF90AF909F908F900895AC0168
:1004A0009B0119A28E010F5D1F4F8AE0C82ED12C2F
:1004B000E12CF12CCA01B901A70196010E94640444
:1004C000605DF80162938F012115310541055105E9
:1004D00089F790E080E0309779F2CF010E94E9013E
:1004E000CBCF1F920F920FB60F9211242F933F93F1
:1004F0004F935F936F937F938F939F93AF93BF932C
:10050000EF93FF938BE291E00E942301FF91EF9123
:10051000BF91AF919F918F917F916F915F914F911B
:100520003F912F910F900FBE0F901F9018951F9223
:100530000F920FB60F9211242F938F939F93EF93E7
:10054000FF93E0913B01F0913C018081E0914101FA
:10055000F091420182FD1BC09081809144018F5F28
:100560008F7320914501821741F0E0914401F0E042
:10057000E55DFE4F958F80934401FF91EF919F9130
:100580008F912F910F900FBE0F901F901895808123
:10059000F4CF1F920F920FB60F9211242F933F9317
:1005A0008F939F93AF93BF9380911D0190911E01F4
:1005B000A0911F01B091200130911C0123E0230F75
:1005C0002D3758F50196A11DB11D20931C01809374
:1005D0001D0190931E01A0931F01B09320018091F3
:1005E000210190912201A0912301B0912401019653
:1005F000A11DB11D8093210190932201A09323019D
:10060000B0932401BF91AF919F918F913F912F9112
:100610000F900FBE0F901F90189526E8230F02969B
:10062000A11DB11DD2CF789484B5826084BD84B5FC
:10063000816084BD85B5826085BD85B5816085BDDD
:1006400080916E00816080936E0010928100809195
:10065000810082608093810080918100816080931D
:100660008100809180008160809380008091B10042
:1006700084608093B1008091B00081608093B0006D
:1006800080917A00846080937A0080917A00826001
:1006900080937A0080917A00816080937A008091C3
:1006A0007A00806880937A001092C100E0913B014B
:1006B000F0913C0182E08083E0913701F0913801B4
:1006C0001082E0913901F0913A018FEC8083109211
:1006D0004301E0913F01F091400186E08083E09189
:1006E0003D01F0913E01808180618083E0913D0178
:1006F000F0913E01808188608083E0913D01F0911E
:100700003E01808180688083E0913D01F0913E014F
:1007100080818F7D80838EE00E947D008FE00E942B
:100720007D0080E10E947D008EE1D82E0FEF13E066
:1007300088248A9493E0992EA12CB12C20E0E22EFB
:1007400020E0F22E8EE00E94B2019C01D29EC001F8
:10075000D39E900D1124B8010E949504EB01709373
:100760002A01609329018FE00E94B20124E630E063
:10077000DC010E94B104A50194010E94450430935C
:1007800028012093270180E10E94B2019C01A2EF81
:10079000BFEF0E94A904A50194010E944504225FB5
:1007A0003F4F4F4F5F4F3093260120932501BE01ED
:1007B000DD0F880B990B0E94F60182E191E00E9407
:1007C000E9016091270170912801072E000C880B28
:1007D000990B0E94F60183E191E00E94E90160918A
:1007E000250170912601072E000C880B990B0E94A1
:1007F000F60188E191E00E94E9010E94C4012B0109
:100800003C010E94C4016419750986099709683E74
:10081000734081059105A8F3E114F10409F492CF26
:100820000E940F01882309F48DCF0E9400008ACF17
:10083000EBE2F1E01382128288EE93E0A0E0B0E0F8
:1008400084839583A683B78384E091E0918380833A
:1008500085EC90E09587848784EC90E09787868785
:1008600080EC90E0918B808B81EC90E0938B828B7D
:1008700082EC90E0958B848B86EC90E0978B868B56
:10088000118E128E138E148E0895052E97FB1EF472
:1008900000940E945C0457FD07D00E94640407FC8A
:1008A00003D04EF40C945C045095409530952195FE
:1008B0003F4F4F4F5F4F089590958095709561958C
:1008C0007F4F8F4F9F4F0895A1E21A2EAA1BBB1B8B
:1008D000FD010DC0AA1FBB1FEE1FFF1FA217B3070C
:1008E000E407F50720F0A21BB30BE40BF50B661F22
:1008F000771F881F991F1A9469F7609570958095E6
:1009000090959B01AC01BD01CF010895A29FB0015C
:10091000B39FC001A39F700D811D1124911DB29F33
:10092000700D811D1124911D089597FB072E16F45B
:10093000009407D077FD09D00E94B80407FC05D0C9
:100940003EF4909581959F4F0895709561957F4FE6
:1009500008950E948604332312F48A1B9B0B0C9487
:10096000B3040E948604B7FF0895821B930B089579
:10097000AA1BBB1B51E107C0AA1FBB1FA617B707C5
:1009800010F0A61BB70B881F991F5A95A9F78095E1
:100990009095BC01CD010895EE0FFF1F0590F491D5
:0809A000E02D0994F894FFCF4B
:1009A800000000004501A500D20092010301E1000A
:0C09B800F50020202C2020000D0A00007B
:00000001FF
